:060000000A128A11FD2E18
:100DFA0083010A128A11012F831603130610861023
:100E0A00061186110612861206138613071087101A
:100E1A0007118711081488140815881508168816EA
:100E2A000817881783120313081C1C2F1D2F1F2F46
:100E3A00612F612F881C222F232F252F872F872F81
:100E4A00081E282F292F2F2F881E2C2F2D2F2F2FAA
:100E5A00AE2FAE2F081F322F332F392F881F362F70
:100E6A00372F392FD52FD52F08183C2F3D2F612F1B
:100E7A00881C402F412F432F612F612F0819462FBD
:100E8A00472F872F881D4A2F4B2F4D2F872F872FAC
:100E9A00081A502F512FAE2F881E542F552F572F17
:100EAA00AE2FAE2F081B5A2F5B2FD52F881F5E2F10
:100EBA005F2F612FD52FD52F0711061206140611A1
:100ECA008616071487151530F2003730F100CA303C
:100EDA00F000F00B6E2FF10B6E2FF20B6E2F752FA9
:100EEA0083120313061086140B30F2001C30F10033
:100EFA006330F000F00B7F2FF10B7F2FF20B7F2F67
:100F0A006400872F8312031386100615861586122E
:100F1A00071487151530F2003730F100CA30F00097
:100F2A00F00B952FF10B952FF20B952F9C2F831217
:100F3A000313861106160B30F2001C30F1006330E1
:100F4A00F000F00BA62FF10BA62FF20BA62F6400D0
:100F5A00AE2F8312031306150612861606170710FC
:100F6A0087151530F2003730F100CA30F000F00B67
:100F7A00BC2FF10BBC2FF20BBC2FC32F8312031310
:100F8A00061386170B30F2001C30F1006330F000B4
:100F9A00F00BCD2FF10BCD2FF20BCD2F6400D52FF7
:100FAA0083120313061586168613071487148711EE
:100FBA001530F2003730F100CA30F000F00BE32FA1
:100FCA00F10BE32FF20BE32FEA2F8312031387109F
:100FDA0007150B30F2001C30F1006330F000F00B03
:100FEA00F42FF10BF42FF20BF42F6400172F172FA5
:060FFA000A128A11002812
:02400E00321965
:00000001FF
